:1000000040C016C463C062C061C060C05FC05EC053
:100010005DC05CC05BC0C2C359C058C057C056C0A9
:1000200055C007634236B79BD8A71A39685618AE31
:10003000BAAB558C1D3CB7CC5763BD6DEDFD753E1D
:10004000F6177231BF000000803F00003900360013
:1000500000003A00370000003B00380001010101B8
:100060000101010102020201020408102040800483
:100070000201000000000004030201000000650806
:100080006B0811241FBECFE5D2E0DEBFCDBF10E06C
:10009000A0E6B0E0E2E9F9E102C005900D92AC36CD
:1000A000B107D9F720E0ACE6B0E001C01D92A13B5A
:1000B000B207E1F710E0C0E4D0E003C02197FE01F1
:1000C00029DBCF33D107D1F71CD457CC99CF82305D
:1000D00099F018F4813069F00895833019F0843074
:1000E00021F008958FB58F7702C08FB58F7D8FBDBA
:1000F000089580B78F7702C080B78F7D80BF089545
:100100001F93CF93DF93282F30E0F901EE58FF4F74
:100110008491F901E959FF4FD491F901E45AFF4F55
:10012000C491CC23C1F0162F8111D1DFEC2FF0E068
:10013000EE0FFF1FEA5AFF4FA591B4918FB7F894C5
:10014000111105C09C91ED2FE095E92302C0EC91BF
:10015000ED2BEC938FBFDF91CF911F910895CF933B
:10016000DF9390E0FC01E959FF4F2491FC01E45A30
:10017000FF4F8491882361F190E0880F991FFC0163
:10018000E05BFF4FC591D491FC01EA5AFF4FA59166
:10019000B491611109C09FB7F8948881209582239A
:1001A0008883EC912E230BC0623061F49FB7F894E2
:1001B0003881822F809583238883EC912E2B2C937A
:1001C0009FBF06C08FB7F894E8812E2B28838FBF7E
:1001D000DF91CF9108958E3008F08E5093B183FB5C
:1001E000222720F930E045E0220F331F4A95E1F73E
:1001F0009F7D292B23B9877087B9369A3699FECF10
:1002000084B125B190E0922B08953FB7F894809186
:10021000710090917200A0917300B091740022B7A8
:1002200008B600FE05C02F3F19F00196A11DB11DB3
:100230003FBFBA2FA92F982F8827820F911DA11D8C
:10024000B11DBC01CD0142E0660F771F881F991FC9
:100250004A95D1F708952FB7F89460916D00709189
:100260006E0080916F00909170002FBF0895FC0187
:100270004081518120E030E0241735078CF4C9011A
:10028000880F991F880F991FA481B581A80FB91FE6
:100290001D921D921D921C9213972F5F3F4FECCF22
:1002A000138212820895CF92DF92EF92FF92FC01A7
:1002B0006A017B0122813381C901019660817181CC
:1002C00097FF02C0860F971FFED9938382839C01FC
:1002D000220F331F220F331F0480F581E02DE20F20
:1002E000F31FC082D182E282F382FF90EF90DF9011
:1002F000CF900895DC011496ED91FC91159712961C
:100300002D913C911397C901861B970B6D917C91A0
:1003100097FF02C0860F971FD6D9880F991F880FA5
:10032000991FE80FF91F608171818281938108957F
:10033000CF92DF92EF92FF92CF93DF93DC01CD91CA
:10034000DC91FB0120E030E0C217D307CCF0C19074
:10035000D190E190F190A901440F551F440F551F12
:10036000DC011C966D917C911D97DB01A40FB51FDC
:10037000CD92DD92ED92FC9213972F5F3F4FE4CF29
:10038000DF91CF91FF90EF90DF90CF900895CF92C3
:10039000DF92EF92FF92CF93DF93DC01CD91DC915E
:1003A000FB0120E030E0C217D307CCF0C190D19020
:1003B000E190F190A901440F551F440F551FDC0136
:1003C0001A966D917C911B97DB01A40FB51FCD92FE
:1003D000DD92ED92FC9213972F5F3F4FE4CFDF91B8
:1003E000CF91FF90EF90DF90CF9008952F923F92A2
:1003F0004F925F926F927F928F929F92AF92BF9235
:10040000CF92DF92EF92FF920F931F93CF93DF93E0
:100410007C01DC011E968D919C911F9744DFF701B2
:1004200020803180C0E0D0E0412C512C32012C16CC
:100430003D0664F1CE01880F991F880F991FD701DF
:100440001A96ED91FC911B97E80FF91F20813181DD
:100450004281538112966D917D918D919C9115975A
:10046000B9D84B015C01BE01F7018685978542DF53
:100470009B01AC01C501B401ADD89B01AC01C30126
:10048000B20130D62B013C012196D1CF01E010E022
:10049000D7015096CD91DC9151971C96CD90DC9070
:1004A0001D9720163106E4F0B80161507109CE01A4
:1004B00021DF9801220F331F220F331FF601E20FB5
:1004C000F31F208131814281538184D89B01AC018B
:1004D000C301B20106D62B013C010F5F1F4FD8CFDD
:1004E000F6012081318142815381C301B20162D67C
:1004F0005B018C01D7011696CD90DD90ED90FC90BC
:10050000199720E030E0A901C701B601EFD718160E
:10051000B4F4A7019601B501C801E8D7181614F480
:1005200056018701F7FAF094F7F8F094A7019601C5
:10053000B501C8013BD687FF02C056018701A5015E
:10054000B801CE01B0DEB501C801DF91CF911F9196
:100550000F91FF90EF90DF90CF90BF90AF909F9062
:100560008F907F906F905F904F903F902F90089565
:10057000CF93DF93EC0179836883613C8FE1780747
:1005800030F4CB01880F991F880F991F02C08FEF9D
:100590009FEFC6D89D838C83CE01DF91CF9167CE2C
:1005A000EF92FF920F931F93CF93DF93EC01798328
:1005B00068838B010F5F1F4F013C8FE1180730F4F8
:1005C000C801880F991F880F991F02C08FEF9FEFF6
:1005D000A7D89B878A87013C8FE1180730F4C801B0
:1005E000880F991F880F991F02C08FEF9FEF98D82F
:1005F0009D878C8786E090E093D87C01B801B8DFB6
:10060000FF86EE8686E090E08BD88C016881798148
:100610006F5F7F4FADDF198B088B4881598180E078
:1006200090E048175907C4F09C01220F331F220F96
:10063000331FEA85FB85E20FF31F108211821282BD
:1006400013826C857D85FB01E20FF31F10821182FE
:10065000128213820196E5CFDF91CF911F910F9106
:10066000FF90EF900895EF92FF920F931F93CF9317
:10067000DF93CDB7DEB728970FB6F894DEBF0FBE75
:10068000CDBF8C0181E090E0F8019183808380E010
:1006900090E0A0E8BFE382839383A483B5831682AE
:1006A00017821086118688E090E03AD8F801938787
:1006B000828788E090E034D8F8019587848786E0C7
:1006C00090E02ED87C0162E070E052DFF801F786FE
:1006D000E68686E090E024D87C01F8016081718193
:1006E0006F5F7F4F45DFF801F18AE08A19821A8235
:1006F0001B821C821D821E821F821886BE016F5FB4
:100700007F4FC80144DEBE016F5F7F4FC80110DE1E
:10071000F80186859785ABDDF80180899189A7DD91
:1007200028960FB6F894DEBF0FBECDBFDF91CF91F4
:100730001F910F91FF90EF9008950F931F93CF9308
:10074000DF93EC018A859B85009709F07ED88C8524
:100750009D85009709F079D80E851F850115110533
:1007600041F0F80184819581009709F06ED8C801A5
:100770006CD80888D989C02D209759F08C819D812B
:10078000009709F062D8CE01DF91CF911F910F91B0
:100790005CC8DF91CF911F910F9108951F920F9226
:1007A0000FB60F9211242F933F938F939F93AF9384
:1007B000BF9380916D0090916E00A0916F00B091F9
:1007C000700030916C0023E0230F2D3720F4019648
:1007D000A11DB11D05C026E8230F0296A11DB11D64
:1007E00020936C0080936D0090936E00A0936F0037
:1007F000B09370008091710090917200A09173008D
:10080000B09174000196A11DB11D80937100909369
:100810007200A0937300B0937400BF91AF919F9149
:100820008F913F912F910F900FBE0F901F901895B1
:100830001F920F920FB60F9211240F931F932F93B5
:100840003F934F935F936F937F938F939F93AF9358
:10085000BF93CF93DF93EF93FF93EAE7F0E08491A8
:10086000EFE6F0E0D491E4E6F0E0C491CC23C9F0E7
:1008700081112DDCEC2FF0E0EE0FFF1FE65BFF4F48
:10088000A591B491EC91ED2361F0CFB7F894BDDC64
:1008900060936000709361008093620090936300A6
:1008A0001AC0CFB7F894B1DC0091600010916100DC
:1008B0002091620030916300601B710B70936500A2
:1008C00060936400C8DC6093A9007093AA008093D1
:1008D000AB009093AC00CFBFFF91EF91DF91CF9130
:1008E000BF91AF919F918F917F916F915F914F9148
:1008F0003F912F911F910F910F900FBE0F901F905E
:100900001895CF93DF93CDB7DEB76A970FB6F894FB
:10091000DEBF0FBECDBF789480B7826080BF80B746
:10092000816080BF83B7826083BF83B7816083BFEC
:1009300089B7816089BF1EBC8EB582608EBD8EB5C1
:1009400081608EBD8FB581608FBD329A319A309AA9
:10095000379A62E088E003DC61E084E000DC60E07C
:1009600081E0FDDB61E083E0FADB61E086E0F7DB5C
:1009700061E085E0F4DB60E080E0F1DB8BB7806470
:100980008BBF85B7816085BF85B78D7F85BFF894A4
:100990001FBC1EBC12BC8FB580688FBD8FB5806236
:1009A0008FBD8FB58E7F8FBD8FB58D7F8FBD8EB57F
:1009B000877F8EBD8EB580618EBD8EB581608EBD08
:1009C0008EB58D7F8EBD8EB58B7F8EBD8FEF9FE0F8
:1009D00095BD84BD78948CE05E012DE0A20EB11C23
:1009E000F501282F11922A95E9F7C12CD12C30E876
:1009F000E32E3FE3F32EC98ADA8AEB8AFC8A40E0D1
:100A000050E060E471E44D875E876F87788B40E04B
:100A100050E060E371EC4D8B5E8B6F8B788F8E01B5
:100A20000F5F1F4FF80111928A95E9F7CD82DE82A0
:100A3000EF82F88680E090E0A0E0B1E489839A83B9
:100A4000AB83BC8380E090E0A0EEB0EC89879A870E
:100A5000AB87BC8762E070E089E790E0A1DDC092DF
:100A60007B00D0927C00E0927D00F0927E00B50188
:100A700089E790E08CDCB80189E790E059DC88E0F8
:100A8000F501282F11922A95E9F74AE057ED63E224
:100A90007CE34D875E876F87788BF80111928A958A
:100AA000E9F7C982DA82EB82FC8284EA90E7ADE75B
:100AB000BFEB8D839E83AF83B88761E070E08BE8E6
:100AC00090E06EDDC0928D00D0928E00E0928F009B
:100AD000F0929000B5018BE890E059DCB8018BE80A
:100AE00090E026DCC0929100D0929200E0929300B8
:100AF000F092940061E083E003DB60E084E000DBDF
:100B00004CED242E45E0342E8FB7F894C090A90008
:100B1000D090AA00E090AB00F090AC008FBF9BDBC0
:100B20006C197D098E099F090AD420E030E04AE75C
:100B300054E440D32DEC3CEC4CE45DE3D7D41816E0
:100B400084F41FB7F894309265002092640083DB30
:100B50006093A9007093AA008093AB009093AC00BF
:100B60001FBF79DB0091A5001091A6002091A7007E
:100B70003091A800601B710B820B930BE0D320E037
:100B800030E04AE754E416D32DEC3CEC4CE45DE352
:100B9000ADD418160CF0F0C15EDB6093A500709325
:100BA000A6008093A7009093A80080E014DBBC010E
:100BB000990F880B990BC5D323E333E343E550E446
:100BC00009D524EA30E94EE153E4F4D22B013C018B
:100BD0002FE832EC45E75DEBFDD426E636E646EC41
:100BE0005FE380D26B017C0120EE3DE240E95AE3F5
:100BF000C301B201EFD4A3019201ECD49B01AC017B
:100C0000C701B6016FD26B017C0120E030E0A90181
:100C1000CDD287FD10C020E030E040E85FE3C7019F
:100C2000B60164D4181654F4C12CD12C20E8E22E5D
:100C30002FE3F22E03C0C12CD12C76012CEF39EA20
:100C400041E75DEBC301B201C5D429E23CE54FEABF
:100C50005FE348D24B015C0125E435EF46ED5AE3F2
:100C6000C301B201B7D4A3019201B4D49B01AC017A
:100C7000C501B40137D2698F7A8F8C0120E030E052
:100C8000A90194D287FD0CC0A7019601698D7A8DC8
:100C9000C8012CD4181644F4C98EDA8E870104C01A
:100CA000198E1A8E00E010E08FB7F89460916400FE
:100CB000709165008FBFCB01845F9140813D97406B
:100CC00008F055C06C3424E072077CF16D3637E0D3
:100CD000730734F46C5D75406F3171051CF420C0EE
:100CE00060E971E06E517109072E000C880B990BB9
:100CF00028D320E030E049EB53E45CD22B013C01E7
:100D0000298D3A8DA801C701B601EBD19B01AC0139
:100D1000C301B2015FD4298D3A8DA801E3D124C06B
:100D2000623E8FEF78071CF502C060E77EEF625EDF
:100D30007F4F072E000C880B990B03D320E030E087
:100D400049EB53E437D22B013C01298D3A8DA801A0
:100D5000C701B601C6D19B01AC01C301B2013AD4AF
:100D6000298D3A8DA801BDD14B015C0103C0812CB6
:100D7000912C5401B501A40189E790E037DB2601ED
:100D8000370177FA709477F87094A30192010ED22C
:100D900087FD14C0B501A40189E790E027DBA70116
:100DA0009601A4D3181644F0B501A40189E790E098
:100DB0001DDB2B013C0102C02601370140929D0042
:100DC00050929E0060929F007092A0002CEE31E540
:100DD00048E75FE3698D7A8DC801FCD39B01AC01C4
:100DE000C301B20183D31816BCF02CEE31E548E7FD
:100DF0005FEB698D7A8DC801EDD39B01AC01C30116
:100E0000B201D4D1082F880F110B0027110F001F3A
:100E10001127000F111F02C001E010E08091770040
:100E2000909178000817190751F0809199009091DE
:100E30009A001DDA80919B0090919C0018DA013095
:100E4000110509F043C060E070E080919B00909133
:100E50009C0050DA26E636E646E65FE347D31816EE
:100E6000CCF5109376000093750061E084E048D9DA
:100E70008091750090917600019709F470C0FFB6DB
:100E8000F89440909D0050909E0060909F0070905C
:100E9000A00020E030E0A901C301B20127D3181659
:100EA0003CF420E030EF4FE755E4C301B20107C046
:100EB000C301B201905820E030EF4FE755E48AD3E8
:100EC00012D27BBD6ABD19BC18BC40C002301105EE
:100ED00009F4DCC080917500909176000097C1F113
:100EE0000817190739F0109276001092750060E02B
:100EF00084E006D90130110509F4BACF023011059A
:100F000071F58091750090917600029741F1FFB6DE
:100F1000F8941BBC1ABC40909D0050909E006090BD
:100F20009F007090A00020E030E0A901C301B20151
:100F3000DDD218160CF0C1C020E030EF4FE755E4C9
:100F4000C301B20147D3CFD179BD68BDFFBE10C088
:100F50000130110509F493CF02301105C1F28FB7AA
:100F6000F894EFEFFFE0FBBDEABDF9BDE8BD8FBF30
:100F7000109378000093770048D90091A100109158
:100F8000A2002091A3003091A400601B710B820B82
:100F9000930BD5D120E034E244E759E40BD127E1AB
:100FA00037EB41ED58E3A2D218160CF068C02DD9EA
:100FB0006093A1007093A2008093A3009093A4007B
:100FC00081E009D9BC01990F880B990BBAD123E3B1
:100FD00033E343E550E4FED229E939E94CE452E435
:100FE000E9D02B013C0180E0F6D8C0909D00D09064
:100FF0009E00E0909F00F090A000BC01990F880B2C
:10100000990B9FD123E333E343E550E4E3D224EA91
:1010100030E94EE153E4CED024E03DEA40E45BE326
:10102000D9D222E73DE648EA5BE35CD04B015C01A4
:1010300020E030E0A901C701B60158D218163CF4EF
:101040002BE734E146E950E4C701B60107C0C70108
:10105000B60190582BE734E146E950E4BBD217D1F2
:101060009B01AC01C501B401B5D29B01AC01C30128
:10107000B201A0D0AB01BC018BE890E0B7D920E071
:1010800030E0232B09F440CDBBD73ECD60E070E0CB
:1010900080919B0090919C002DD923E333E343E39F
:1010A0005FE324D218160CF015CF1093760000934E
:1010B000750061E084E024D824CFC301B2019058C8
:1010C00020E030EF4FE755E43DCF89E790E0CBDA01
:1010D0008BE890E0C8CA8BE890E02FDB89E790E0CE
:1010E0002CCB5058BB27AA270ED0C6C1B7D130F0A1
:1010F000BCD120F031F49F3F11F41EF487C10EF4EF
:10110000E095E7FB7DC1E92FC8D180F3BA176207EC
:1011100073078407950718F071F49EF5E0C10EF48B
:10112000E0950B2EBA2FA02D0B01B90190010C01F7
:10113000CA01A0011124FF27591B99F0593F50F40F
:10114000503E68F11A16F040A22F232F342F442767
:10115000585FF3CF469537952795A795F04053955F
:10116000C9F77EF41F16BA0B620B730B840BBAF02F
:101170009150A1F0FF0FBB1F661F771F881FC2F79A
:101180000EC0BA0F621F731F841F48F487957795AE
:101190006795B795F7959E3F08F0B3CF9395880F65
:1011A00008F09927EE0F97958795089505D108F4D3
:1011B00081E008950CD060C158D140F04FD130F09B
:1011C00021F45F3F19F01CC151118AC11FC165D1C3
:1011D00098F39923C9F35523B1F3951B550BBB27FE
:1011E000AA2762177307840738F09F5F5F4F220FAB
:1011F000331F441FAA1FA9F333D00E2E3AF0E0E8A4
:1012000030D091505040E695001CCAF729D0FE2FEF
:1012100027D0660F771F881FBB1F26173707480781
:10122000AB07B0E809F0BB0B802DBF01FF27935837
:101230005F4F2AF09E3F510568F0E2C051C15F3F09
:10124000ECF3983EDCF3869577956795B795F7951F
:101250009F5FC9F7880F911D9695879597F9089517
:10126000E1E0660F771F881FBB1F621773078407B3
:10127000BA0720F0621B730B840BBA0BEE1F88F7C2
:10128000E095089519F40EF0BBC029C1BFC00DD17F
:10129000C8F39638C0F707F80F92E8942BE33AEAC0
:1012A00048EB5FE7A4D10F920F920F924DB75EB754
:1012B0000F925DD1E2E2F0E0ACD04F915F91EF91FF
:1012C000FF91E595EE1FFF1F49F0FE57E0684427A8
:1012D000EE0F441FFA95E1F74195550B14D10F908D
:1012E00007FE08C10895E1D088F09F5790F0B92F0C
:1012F0009927B751A0F0D1F0660F771F881F991F6B
:101300001AF0BA95C9F712C0B13081F0E8D0B1E057
:101310000895E5C0672F782F8827B85F39F0B93F67
:10132000CCF3869577956795B395D9F73EF490956C
:101330008095709561957F4F8F4F9F4F0895E894EA
:1013400009C097FB3EF490958095709561957F4F0D
:101350008F4F9F4F9923A9F0F92F96E9BB279395BB
:10136000F695879577956795B795F111F8CFFAF4CB
:10137000BB0F11F460FF1BC06F5F7F4F8F4F9F4FFC
:1013800016C0882311F096E911C0772321F09EE85A
:10139000872F762F05C0662371F096E8862F70E0C0
:1013A00060E02AF09A95660F771F881FDAF7880F9A
:1013B0009695879597F90895990F0008550FAA0BF0
:1013C000E0E8FEEF16161706E807F907C0F0121658
:1013D0001306E407F50798F0621B730B840B950B5B
:1013E00039F40A2661F0232B242B252B21F40895B0
:1013F0000A2609F4A140A6958FEF811D811D08954D
:1014000097F99F6780E870E060E008959FEF80ECB7
:101410000895DF93CF931F930F93FF92EF92DF9284
:101420007B018C01689405C0DA2EEF01DED0FE014D
:10143000E894A5912591359145915591AEF3EF0131
:1014400062DEFE019701A801DA9479F7DF90EF9050
:10145000FF900F911F91CF91DF91089500240A947E
:101460001616170618060906089500240A9412167F
:101470001306140605060895092E0394000C11F4B2
:10148000882352F0BB0F40F4BF2B11F460FF04C05F
:101490006F5F7F4F8F4F9F4F089557FD9058440FB8
:1014A000551F59F05F3F71F04795880F97FB991FC3
:1014B00061F09F3F79F08795089512161306140680
:1014C000551FF2CF4695F1DF08C01616170618060D
:1014D000991FF1CF86957105610508940895E894E8
:1014E000BB2766277727CB0197F9089565DF08F4B6
:1014F0008FEF08959B01AC0160E070E080E89FE30E
:1015000059CE7ECFD2C0D1DFE8F39923D9F3940F1F
:10151000511DBBF39150504094F059F0882332F0A4
:10152000660F771F881F91505040C1F79E3F5105AD
:1015300044F7880F911D9695879597F908955F3F19
:10154000ACF0983E9CF0BB27869577956795B7954C
:1015500008F4B1609395C1F7BB0F58F711F460FF21
:10156000E8CF6F5F7F4F8F4F9F4FE3CFB9CFFA0127
:10157000DC01AA0FBB1F9B01AC01BF5728F4222737
:101580003327442750781FC0B75188F4AB2F00246D
:10159000469537952795011CA395D2F3002069F055
:1015A000220F331F441FB395DAF30DD09ACD61306B
:1015B0007105A0E88A07B94630F49B01AC016627A3
:1015C000772788279078309621F0208331834283D3
:1015D000538308950AD050CF41DF28F046DF18F03A
:1015E000952309F00DCF12CF7BCF57DFA8F39923B6
:1015F000D9F35523C9F3950F50E0551FAA27EE27BD
:10160000FF27BB2700240894679520F4E20FF31FFF
:10161000B41F0A1E220F331F441FAA1F6695A9F785
:10162000779530F4F30FB41F0A1E121E08F4639569
:10163000330F441FAA1F221F769599F7879520F430
:10164000B40F0A1E121E631F440FAA1F221F331F4E
:101650008695A9F7862F712D602D11249F57504034
:101660008AF0E1F088234AF0EE0FFF1FBB1F661FD0
:10167000771F881F91505040A9F79E3F510570F089
:10168000BFCE2ECF5F3FECF3983EDCF38695779587
:101690006795B795F795E7959F5FC1F7FE2B880F84
:1016A000911D9695879597F908959F3F31F0915038
:1016B00020F4879577956795B795880F911D969536
:1016C000879597F9089597FB072E16F4009406D096
:1016D00077FD08D00BD007FC05D03EF4909581959E
:1016E0009F4F0895709561957F4F0895AA1BBB1B6E
:1016F00051E107C0AA1FBB1FA617B70710F0A61B12
:10170000B70B881F991F5A95A9F780959095BC0132
:10171000CD010895EE0FFF1F0590F491E02D09947F
:10172000CF93DF938230910510F482E090E0E09156
:10173000AF00F091B00020E030E0C0E0D0E03097A2
:1017400011F14081518148175907C0F048175907D6
:1017500061F482819381209719F09B838A832BC047
:101760009093B0008093AF0026C02115310519F089
:101770004217530718F49A01BE01DF01EF010280FE
:10178000F381E02DDCCF2115310509F1281B390B40
:101790002430310590F412968D919C911397611528
:1017A000710521F0FB019383828304C09093B00004
:1017B0008093AF00FD01329644C0FD01E20FF31F9C
:1017C00081939193225031092D933C933AC02091FB
:1017D000AD003091AE00232B41F420916800309190
:1017E00069003093AE002093AD00209166003091E7
:1017F00067002115310541F42DB73EB740916A00CD
:1018000050916B00241B350BE091AD00F091AE00C0
:10181000E217F307A0F42E1B3F0B2817390778F0C7
:10182000AC014E5F5F4F2417350748F04E0F5F1F26
:101830005093AE004093AD008193919302C0E0E0DD
:10184000F0E0CF01DF91CF9108950F931F93CF93D5
:10185000DF93009709F48CC0FC0132971382128247
:101860000091AF001091B0000115110581F42081A5
:101870003181820F931F2091AD003091AE00281767
:10188000390779F5F093AE00E093AD0071C0D8014F
:1018900040E050E0AE17BF0750F412962D913C91F6
:1018A0001397AD012115310509F1D901F3CF9D0140
:1018B000DA013383228360817181860F971F82173B
:1018C000930769F4EC0128813981260F371F2E5FB9
:1018D0003F4F318320838A819B8193838283452B71
:1018E00029F4F093B000E093AF0042C01396FC934C
:1018F000EE931297ED01499159919E01240F351FE6
:10190000E217F30771F480819181840F951F02968D
:1019100011969C938E938281938113969C938E93C0
:101920001297E0E0F0E0D80112968D919C91139708
:10193000009719F0F8018C01F6CF8D919C919801D8
:101940002E5F3F4F820F931F2091AD003091AE006C
:101950002817390769F4309729F41092B0001092D3
:10196000AF0002C0138212821093AE000093AD004C
:10197000DF91CF911F910F91089510E0C0E4D0E066
:1019800003C0FE01C7DE2196C134D107D1F7F89418
:02199000FFCF87
:0C199200FFFF0000DC050000B100800039
:00000001FF
