:1000000040C016C463C062C061C060C05FC05EC053
:100010005DC05CC05BC0C2C359C058C057C056C0A9
:1000200055C007634236B79BD8A71A39685618AE31
:10003000BAAB558C1D3CB7CC5763BD6DEDFD753E1D
:10004000F6177231BF000000803F00003900360013
:1000500000003A00370000003B00380001010101B8
:100060000101010102020201020408102040800483
:100070000201000000000004030201000000340837
:100080003A0811241FBECFE5D2E0DEBFCDBF10E09D
:10009000A0E6B0E0E0E3F9E102C005900D92AC36D5
:1000A000B107D9F720E0ACE6B0E001C01D92A13B5A
:1000B000B207E1F710E0C0E4D0E003C02197FE01F1
:1000C000F8DACF33D107D1F721D426CC99CF8230BB
:1000D00099F018F4813069F00895833019F0843074
:1000E00021F008958FB58F7702C08FB58F7D8FBDBA
:1000F000089580B78F7702C080B78F7D80BF089545
:100100001F93CF93DF93282F30E0F901EE58FF4F74
:100110008491F901E959FF4FD491F901E45AFF4F55
:10012000C491CC23C1F0162F8111D1DFEC2FF0E068
:10013000EE0FFF1FEA5AFF4FA591B4918FB7F894C5
:10014000111105C09C91ED2FE095E92302C0EC91BF
:10015000ED2BEC938FBFDF91CF911F910895CF933B
:10016000DF9390E0FC01E959FF4F2491FC01E45A30
:10017000FF4F8491882361F190E0880F991FFC0163
:10018000E05BFF4FC591D491FC01EA5AFF4FA59166
:10019000B491611109C09FB7F8948881209582239A
:1001A0008883EC912E230BC0623061F49FB7F894E2
:1001B0003881822F809583238883EC912E2B2C937A
:1001C0009FBF06C08FB7F894E8812E2B28838FBF7E
:1001D000DF91CF9108958E3008F08E5093B183FB5C
:1001E000222720F930E045E0220F331F4A95E1F73E
:1001F0009F7D292B23B9877087B9369A3699FECF10
:1002000084B125B190E0922B08953FB7F894809186
:10021000710090917200A0917300B091740022B7A8
:1002200008B600FE05C02F3F19F00196A11DB11DB3
:100230003FBFBA2FA92F982F8827820F911DA11D8C
:10024000B11DBC01CD0143E0660F771F881F991FC8
:100250004A95D1F708952FB7F89460916D00709189
:100260006E0080916F00909170002FBF0895FC0187
:100270004081518120E030E0241735078CF4C9011A
:10028000880F991F880F991FA481B581A80FB91FE6
:100290001D921D921D921C9213972F5F3F4FECCF22
:1002A000138212820895CF92DF92EF92FF92FC01A7
:1002B0006A017B0122813381C901019660817181CC
:1002C00097FF02C0860F971FCDD9938382839C012D
:1002D000220F331F220F331F0480F581E02DE20F20
:1002E000F31FC082D182E282F382FF90EF90DF9011
:1002F000CF900895DC011496ED91FC91159712961C
:100300002D913C911397C901861B970B6D917C91A0
:1003100097FF02C0860F971FA5D9880F991F880FD6
:10032000991FE80FF91F608171818281938108957F
:10033000CF92DF92EF92FF92CF93DF93DC01CD91CA
:10034000DC91FB0120E030E0C217D307CCF0C19074
:10035000D190E190F190A901440F551F440F551F12
:10036000DC011C966D917C911D97DB01A40FB51FDC
:10037000CD92DD92ED92FC9213972F5F3F4FE4CF29
:10038000DF91CF91FF90EF90DF90CF900895CF92C3
:10039000DF92EF92FF92CF93DF93DC01CD91DC915E
:1003A000FB0120E030E0C217D307CCF0C190D19020
:1003B000E190F190A901440F551F440F551FDC0136
:1003C0001A966D917C911B97DB01A40FB51FCD92FE
:1003D000DD92ED92FC9213972F5F3F4FE4CFDF91B8
:1003E000CF91FF90EF90DF90CF9008952F923F92A2
:1003F0004F925F926F927F928F929F92AF92BF9235
:10040000CF92DF92EF92FF920F931F93CF93DF93E0
:100410007C01DC011E968D919C911F9744DFF701B2
:1004200020803180C0E0D0E0412C512C32012C16CC
:100430003D0664F1CE01880F991F880F991FD701DF
:100440001A96ED91FC911B97E80FF91F20813181DD
:100450004281538112966D917D918D919C9115975A
:1004600088D84B015C01BE01F7018685978542DF84
:100470009B01AC01C501B4017CD89B01AC01C30157
:10048000B201FFD52B013C012196D1CF01E010E054
:10049000D7015096CD91DC9151971C96CD90DC9070
:1004A0001D9720163106E4F0B80161507109CE01A4
:1004B00021DF9801220F331F220F331FF601E20FB5
:1004C000F31F208131814281538153D89B01AC01BC
:1004D000C301B201D5D52B013C010F5F1F4FD8CF0F
:1004E000F6012081318142815381C301B20131D6AD
:1004F0005B018C01D7011696CD90DD90ED90FC90BC
:10050000199720E030E0A901C701B601BED718163F
:10051000B4F4A7019601B501C801B7D7181614F4B1
:1005200056018701F7FAF094F7F8F094A7019601C5
:10053000B501C8010AD687FF02C056018701A5018F
:10054000B801CE01B0DEB501C801DF91CF911F9196
:100550000F91FF90EF90DF90CF90BF90AF909F9062
:100560008F907F906F905F904F903F902F90089565
:10057000CF93DF93EC0179836883613C8FE1780747
:1005800030F4CB01880F991F880F991F02C08FEF9D
:100590009FEF95D89D838C83CE01DF91CF9167CE5D
:1005A000EF92FF920F931F93CF93DF93EC01798328
:1005B00068838B010F5F1F4F013C8FE1180730F4F8
:1005C000C801880F991F880F991F02C08FEF9FEFF6
:1005D00076D89B878A87013C8FE1180730F4C801E1
:1005E000880F991F880F991F02C08FEF9FEF67D860
:1005F0009D878C8786E090E062D87C01B801B8DFE7
:10060000FF86EE8686E090E05AD88C016881798179
:100610006F5F7F4FADDF198B088B4881598180E078
:1006200090E048175907C4F09C01220F331F220F96
:10063000331FEA85FB85E20FF31F108211821282BD
:1006400013826C857D85FB01E20FF31F10821182FE
:10065000128213820196E5CFDF91CF911F910F9106
:10066000FF90EF900895EF92FF920F931F93CF9317
:10067000DF93CDB7DEB728970FB6F894DEBF0FBE75
:10068000CDBF8C0181E090E0F8019183808380E010
:1006900090E0A0E8BFE382839383A483B5831682AE
:1006A00017821086118688E090E009D8F8019387B8
:1006B000828788E090E003D8F8019587848786E0F8
:1006C00090E0FDD77C0162E070E052DFF801F78630
:1006D000E68686E090E0F3D77C01F80160817181C5
:1006E0006F5F7F4F45DFF801F18AE08A19821A8235
:1006F0001B821C821D821E821F821886BE016F5FB4
:100700007F4FC80144DEBE016F5F7F4FC80110DE1E
:10071000F80186859785ABDDF80180899189A7DD91
:1007200028960FB6F894DEBF0FBECDBFDF91CF91F4
:100730001F910F91FF90EF9008950F931F93CF9308
:10074000DF93EC018A859B85009709F04DD88C8555
:100750009D85009709F048D80E851F850115110564
:1007600041F0F80184819581009709F03DD8C801D6
:100770003BD80888D989C02D209759F08C819D815C
:10078000009709F031D8CE01DF91CF911F910F91E1
:100790002BC8DF91CF911F910F9108951F920F9257
:1007A0000FB60F9211242F933F938F939F93AF9384
:1007B000BF9380916D0090916E00A0916F00B091F9
:1007C000700030916C0026E0230F2D3720F4029644
:1007D000A11DB11D05C029E8230F0396A11DB11D60
:1007E00020936C0080936D0090936E00A0936F0037
:1007F000B09370008091710090917200A09173008D
:10080000B09174000196A11DB11D80937100909369
:100810007200A0937300B0937400BF91AF919F9149
:100820008F913F912F910F900FBE0F901F901895B1
:100830001F920F920FB60F921124CF92DF92EF9278
:10084000FF922F933F934F935F936F937F938F9379
:100850009F93AF93BF93CF93DF93EF93FF93EAE719
:10086000F0E08491EFE6F0E0D491E4E6F0E0C491AA
:10087000CC23B9F081112BDCEC2FF0E0EE0FFF1F41
:10088000E65BFF4FA591B491EC91ED2351F0BDDCF7
:1008900060936000709361008093620090936300A6
:1008A0001EC0C0906000D0906100E0906200F090A7
:1008B0006300ABDCC616D706E806F90638F4A5DCFB
:1008C0006C197D097093650060936400C4DC6093CB
:1008D000A9007093AA008093AB009093AC00FF91A5
:1008E000EF91DF91CF91BF91AF919F918F917F91C8
:1008F0006F915F914F913F912F91FF90EF90DF901B
:10090000CF900F900FBE0F901F901895CF93DF934D
:10091000CDB7DEB768970FB6F894DEBF0FBECDBF78
:10092000789480B7826080BF80B7816080BF83B7D2
:10093000826083BF83B7816083BF89B7816089BFCD
:100940001EBC8EB582608EBD8EB581608EBD8FB5AA
:1009500081608FBD329A319A3098379A62E088E090
:10096000FEDB61E084E0FBDB60E081E0F8DB61E07E
:1009700083E0F5DB61E086E0F2DB61E085E0EFDB60
:1009800060E080E0ECDB8BB780648BBF85B7816073
:1009900085BF85B78D7F85BFF8941FBC1EBC12BC78
:1009A0008FB580688FBD8FB580628FBD8FB58E7F0C
:1009B0008FBD8FB58D7F8FBD8EB5877F8EBD8EB578
:1009C00080618EBD8EB581608EBD8EB58D7F8EBDF2
:1009D0008EB58B7F8EBD8FEF9FE095BD84BD7894E3
:1009E0008CE05E012DE0A20EB11CF501282F1192C2
:1009F0002A95E9F7C12CD12C30E8E32E3FE3F32E02
:100A0000C98ADA8AEB8AFC8A40E050E060E471E44B
:100A10004D875E876F87788B40E050E060E371EC34
:100A20004D8B5E8B6F8B788F8E010F5F1F4FF801A0
:100A300011928A95E9F7CD82DE82EF82F88680E016
:100A400090E0A0E0B1E489839A83AB83BC8380E02B
:100A500090E0A0EEB0EC89879A87AB87BC8762E014
:100A600070E089E790E09CDDC0927B00D0927C0032
:100A7000E0927D00F0927E00B50189E790E087DC8E
:100A8000B80189E790E054DC88E0F501282F119245
:100A90002A95E9F74AE057ED63E27CE34D875E87EC
:100AA0006F87788BF80111928A95E9F7C982DA820B
:100AB000EB82FC8284EA90E7ADE7BFEB8D839E83F7
:100AC000AF83B88761E070E08BE890E069DDC092A9
:100AD0008D00D0928E00E0928F00F0929000B501D0
:100AE0008BE890E054DCB8018BE890E021DCC09208
:100AF0009100D0929200E0929300F092940061E015
:100B000083E0FEDA60E084E0FBDAA5DB0091A90077
:100B10001091AA002091AB003091AC00601B710BCA
:100B2000820B930BDBD320E030E04AE754E411D38F
:100B30002DEC3CEC4CE45DE3A8D418167CF48CED71
:100B400095E0909365008093640085DB6093A90035
:100B50007093AA008093AB009093AC007CDB009173
:100B6000A5001091A6002091A7003091A8000617BB
:100B700017072807390708F0AFC16DDBAFD320E0B6
:100B800030E048E452E47DD27DD36093A5007093B9
:100B9000A6008093A7009093A80080E01CDBBC0116
:100BA000990F880B990B9CD323E333E343E550E47F
:100BB000E0D424EA30E94EE153E4CBD26B017C016E
:100BC0002FE832EC45E75DEBD4D426E636E646EC7A
:100BD0005FE357D24B015C0120EE3DE240E95AE36E
:100BE000C701B601C6D4A7019601C3D49B01AC01CD
:100BF000C501B40146D24B015C0120E030E0A901FF
:100C0000A4D287FD10C020E030E040E85FE3C501DA
:100C1000B4013BD4181654F4812C912C20E8A22E58
:100C20002FE3B22E03C0812C912C54012CEF39EA12
:100C300041E75DEBC701B6019CD429E23CE54FEAF0
:100C40005FE31FD22B013C0125E435EF46ED5AE36B
:100C5000C701B6018ED4A70196018BD49B01AC01CC
:100C6000C301B2010ED23B018C0120E030E0A901AA
:100C70006CD287FD0AC0A5019401B301C80105D457
:100C800018163CF43401850104C0612C712C00E07D
:100C900010E06091640070916500CB01845F914029
:100CA000813D974008F051C06C34F4E07F076CF14F
:100CB0006D3627E0720734F46C5D75406F31710555
:100CC0001CF41EC060E971E06E517109072E000C22
:100CD000880B990B05D320E030E049EB53E439D27F
:100CE0006B017C019301A801C501B401C9D19B012D
:100CF000AC01C701B6013DD49301A801C2D122C005
:100D0000623E8FEF78070CF502C060E77EEF625E0F
:100D10007F4F072E000C880B990BE2D220E030E0C9
:100D200049EB53E416D26B017C019301A801C50184
:100D3000B401A6D19B01AC01C701B6011AD493013D
:100D4000A8019ED11B012C0103C0212C312C2101B3
:100D5000B201A10189E790E049DB75016401F7FA6E
:100D6000F094F7F8F094A7019601EFD187FD14C035
:100D7000B201A10189E790E039DBA501940185D397
:100D8000181644F0B201A10189E790E02FDB6B0156
:100D90007C0102C075016401C0929D00D0929E004A
:100DA000E0929F00F092A0002CEE31E548E75FE36F
:100DB000B301C801DED39B01AC01C701B60165D305
:100DC0001816B4F02CEE31E548E75FEBB301C8012B
:100DD000D0D39B01AC01C701B601B7D1082F880F52
:100DE000110B0027110F001F1127000F111F02C048
:100DF00001E010E0809177009091780008171907C2
:100E000051F08091990090919A0031DA80919B0085
:100E100090919C002CDA01301105C1F560E070E082
:100E200080919B0090919C0065DA26E636E646E6C6
:100E30005FE32BD3181674F51093760000937500BA
:100E400061E084E05DD98091750090917600019712
:100E5000C9F120E030E0A901C701B60116D3181688
:100E60003CF420E030EF4FE755E4C701B60107C07E
:100E7000C701B601905820E030EF4FE755E479D331
:100E800001D27BBD6ABD19BC18BC22C0023011055D
:100E900009F4A7C08091750090917600009709F43D
:100EA000DAC00817190739F0109276001092750011
:100EB00060E084E025D90130110529F202301105E6
:100EC00009F4A5C0EFEFFFE0FBBDEABDF9BDE8BD49
:100ED000109378000093770098D90091A1001091A9
:100EE000A2002091A3003091A4000617170728073D
:100EF000390708F06FC089D9F1D120E030E048EC23
:100F000052E4BFD0BFD16093A1007093A200809340
:100F1000A3009093A40081E05ED9BC01990F880BD7
:100F2000990BDED123E333E343E550E422D329E9EF
:100F300039E94CE452E40DD14B015C0180E04BD91E
:100F4000C0909D00D0909E00E0909F00F090A00087
:100F5000BC01990F880B990BC3D123E333E343E51D
:100F600050E407D324EA30E94EE153E4F2D024E020
:100F70003DEA40E45BE3FDD222E73DE648EA5BE37D
:100F800080D02B013C0120E030E0A901C701B6016F
:100F90007CD218163CF42BE734E146E950E4C70153
:100FA000B60107C0C701B60190582BE734E146E906
:100FB00050E4DFD23BD19B01AC01C301B201D9D2D5
:100FC0009B01AC01C501B401C4D0AB01BC018BE8ED
:100FD00090E00CDA80E090E0892B09F496CD10D8EF
:100FE00094CD60E070E080919B0090919C0082D94C
:100FF00023E333E343E35FE348D218160CF04ACF10
:10100000109376000093750061E084E079D88091B8
:10101000750090917600029709F454CF1BBC1ABC5E
:1010200020E030E0A901C701B6012FD218163CF428
:1010300020E030EF4FE755E4C701B60107C0C70114
:10104000B601905820E030EF4FE755E492D21AD124
:1010500079BD68BD3DCF0130110509F4FACE0230EB
:10106000110509F02FCFDACF89E790E0FCDA8BE8A1
:1010700090E0F9CA8BE890E060DB89E790E05DCB17
:101080005058BB27AA270ED0C6C1B7D130F0BCD16B
:1010900020F031F49F3F11F41EF487C10EF4E09567
:1010A000E7FB7DC1E92FC8D180F3BA176207730748
:1010B0008407950718F071F49EF5E0C10EF4E095F1
:1010C0000B2EBA2FA02D0B01B90190010C01CA0102
:1010D000A0011124FF27591B99F0593F50F4503EAD
:1010E00068F11A16F040A22F232F342F4427585F9F
:1010F000F3CF469537952795A795F0405395C9F7B7
:101100007EF41F16BA0B620B730B840BBAF091506E
:10111000A1F0FF0FBB1F661F771F881FC2F70EC00D
:10112000BA0F621F731F841F48F4879577956795E0
:10113000B795F7959E3F08F0B3CF9395880F08F0C9
:101140009927EE0F97958795089505D108F481E0CA
:1011500008950CD060C158D140F04FD130F021F447
:101160005F3F19F01CC151118AC11FC165D198F3AD
:101170009923C9F35523B1F3951B550BBB27AA2718
:1011800062177307840738F09F5F5F4F220F331F8A
:10119000441FAA1FA9F333D00E2E3AF0E0E830D056
:1011A00091505040E695001CCAF729D0FE2F27D059
:1011B000660F771F881FBB1F261737074807AB0727
:1011C000B0E809F0BB0B802DBF01FF2793585F4F9C
:1011D0002AF09E3F510568F0E2C051C15F3FECF339
:1011E000983EDCF3869577956795B795F7959F5F61
:1011F000C9F7880F911D9695879597F90895E1E0B5
:10120000660F771F881FBB1F621773078407BA0713
:1012100020F0621B730B840BBA0BEE1F88F7E0956E
:10122000089519F40EF0BBC029C1BFC00DD1C8F399
:101230009638C0F707F80F92E8942BE33AEA48EBA8
:101240005FE7A4D10F920F920F924DB75EB70F9246
:101250005DD1E2E2F0E0ACD04F915F91EF91FF9170
:10126000E595EE1FFF1F49F0FE57E0684427EE0F9B
:10127000441FFA95E1F74195550B14D10F9007FEE5
:1012800008C10895E1D088F09F5790F0B92F9927B1
:10129000B751A0F0D1F0660F771F881F991F1AF081
:1012A000BA95C9F712C0B13081F0E8D0B1E0089525
:1012B000E5C0672F782F8827B85F39F0B93FCCF3A6
:1012C000869577956795B395D9F73EF49095809577
:1012D000709561957F4F8F4F9F4F0895E89409C097
:1012E00097FB3EF490958095709561957F4F8F4F59
:1012F0009F4F9923A9F0F92F96E9BB279395F6956F
:10130000879577956795B795F111F8CFFAF4BB0FEC
:1013100011F460FF1BC06F5F7F4F8F4F9F4F16C050
:10132000882311F096E911C0772321F09EE8872FDA
:10133000762F05C0662371F096E8862F70E060E096
:101340002AF09A95660F771F881FDAF7880F96950F
:10135000879597F90895990F0008550FAA0BE0E8B3
:10136000FEEF16161706E807F907C0F01216130667
:10137000E407F50798F0621B730B840B950B39F4A7
:101380000A2661F0232B242B252B21F408950A260D
:1013900009F4A140A6958FEF811D811D089597F94D
:1013A0009F6780E870E060E008959FEF80EC08950B
:1013B000DF93CF931F930F93FF92EF92DF927B0106
:1013C0008C01689405C0DA2EEF01DED0FE01E894AE
:1013D000A5912591359145915591AEF3EF0162DECE
:1013E000FE019701A801DA9479F7DF90EF90FF9062
:1013F0000F911F91CF91DF91089500240A94161642
:10140000170618060906089500240A9412161306F2
:10141000140605060895092E0394000C11F4882380
:1014200052F0BB0F40F4BF2B11F460FF04C06F5F9C
:101430007F4F8F4F9F4F089557FD9058440F551F72
:1014400059F05F3F71F04795880F97FB991F61F046
:101450009F3F79F087950895121613061406551FBD
:10146000F2CF4695F1DF08C0161617061806991F29
:10147000F1CF86957105610508940895E894BB271E
:1014800066277727CB0197F9089565DF08F48FEF7A
:1014900008959B01AC0160E070E080E89FE359CEC5
:1014A0007ECFD2C0D1DFE8F39923D9F3940F511D39
:1014B000BBF39150504094F059F0882332F0660FFE
:1014C000771F881F91505040C1F79E3F510544F748
:1014D000880F911D9695879597F908955F3FACF019
:1014E000983E9CF0BB27869577956795B79508F44D
:1014F000B1609395C1F7BB0F58F711F460FFE8CFC7
:101500006F5F7F4F8F4F9F4FE3CFB9CFFA01DC0161
:10151000AA0FBB1F9B01AC01BF5728F4222733271A
:10152000442750781FC0B75188F4AB2F002446954C
:1015300037952795011CA395D2F3002069F0220F5F
:10154000331F441FB395DAF30DD09ACD6130710586
:10155000A0E88A07B94630F49B01AC0166277727DB
:1015600088279078309621F02083318342835383FB
:1015700008950AD050CF41DF28F046DF18F09523B8
:1015800009F00DCF12CF7BCF57DFA8F39923D9F302
:101590005523C9F3950F50E0551FAA27EE27FF27C3
:1015A000BB2700240894679520F4E20FF31FB41FB3
:1015B0000A1E220F331F441FAA1F6695A9F77795AD
:1015C00030F4F30FB41F0A1E121E08F46395330F94
:1015D000441FAA1F221F769599F7879520F4B40F10
:1015E0000A1E121E631F440FAA1F221F331F869557
:1015F000A9F7862F712D602D11249F5750408AF036
:10160000E1F088234AF0EE0FFF1FBB1F661F771F14
:10161000881F91505040A9F79E3F510570F0BFCEF2
:101620002ECF5F3FECF3983EDCF386957795679578
:10163000B795F795E7959F5FC1F7FE2B880F911D32
:101640009695879597F908959F3F31F0915020F432
:10165000879577956795B795880F911D969587958E
:1016600097F9089597FB072E16F4009406D077FD9E
:1016700008D00BD007FC05D03EF4909581959F4F84
:101680000895709561957F4F0895AA1BBB1B51E18A
:1016900007C0AA1FBB1FA617B70710F0A61BB70BE2
:1016A000881F991F5A95A9F780959095BC01CD0187
:1016B0000895EE0FFF1F0590F491E02D0994CF934C
:1016C000DF938230910510F482E090E0E091AF006A
:1016D000F091B00020E030E0C0E0D0E0309711F1B0
:1016E0004081518148175907C0F04817590761F4E4
:1016F00082819381209719F09B838A832BC09093DA
:10170000B0008093AF0026C02115310519F04217B3
:10171000530718F49A01BE01DF01EF010280F38143
:10172000E02DDCCF2115310509F1281B390B2430C0
:10173000310590F412968D919C9113976115710566
:1017400021F0FB019383828304C09093B0008093C7
:10175000AF00FD01329644C0FD01E20FF31F8193FB
:101760009193225031092D933C933AC02091AD00C2
:101770003091AE00232B41F4209168003091690034
:101780003093AE002093AD00209166003091670049
:101790002115310541F42DB73EB740916A005091B3
:1017A0006B00241B350BE091AD00F091AE00E21709
:1017B000F307A0F42E1B3F0B2817390778F0AC0174
:1017C0004E5F5F4F2417350748F04E0F5F1F509351
:1017D000AE004093AD008193919302C0E0E0F0E051
:1017E000CF01DF91CF9108950F931F93CF93DF9394
:1017F000009709F48CC0FC01329713821282009189
:10180000AF001091B0000115110581F420813181E4
:10181000820F931F2091AD003091AE002817390739
:1018200079F5F093AE00E093AD0071C0D80140E0CF
:1018300050E0AE17BF0750F412962D913C911397CC
:10184000AD012115310509F1D901F3CF9D01DA016F
:101850003383228360817181860F971F82179307DC
:1018600069F4EC0128813981260F371F2E5F3F4F25
:10187000318320838A819B8193838283452B29F442
:10188000F093B000E093AF0042C01396FC93EE9348
:101890001297ED01499159919E01240F351FE217CE
:1018A000F30771F480819181840F951F0296119640
:1018B0009C938E938281938113969C938E9312971F
:1018C000E0E0F0E0D80112968D919C91139700977B
:1018D00019F0F8018C01F6CF8D919C9198012E5F43
:1018E0003F4F820F931F2091AD003091AE0028171B
:1018F000390769F4309729F41092B0001092AF00C4
:1019000002C0138212821093AE000093AD00DF91EB
:10191000CF911F910F91089510E0C0E4D0E003C073
:10192000FE01C7DE2196C134D107D1F7F894FFCF6D
:0C193000FFFF0000DC050000B10080009B
:00000001FF
