:1000000040C080C363C062C061C060C05FC05EC0EA
:100010005DC05CC05BC02CC359C058C057C056C03F
:1000200055C007634236B79BD8A71A39685618AE31
:10003000BAAB558C1D3CB7CC5763BD6DEDFD753E1D
:10004000F6177231BF000000803F00003900360013
:1000500000003A00370000003B00380001010101B8
:100060000101010102020201020408102040800483
:100070000201000000000004030201000000A808C3
:10008000AE0811241FBECFE5D2E0DEBFCDBF10E029
:10009000A0E6B0E0E2E1FAE102C005900D92AC36D4
:1000A000B107D9F720E0ACE6B0E001C01D92A13B5A
:1000B000B207E1F710E0C0E4D0E003C02197FE01F1
:1000C00071DBCF33D107D1F7F0D397CC99CF823002
:1000D000A1F018F4813069F00895833019F084306C
:1000E00029F008958FB58F778FBD08958FB58F7DD7
:1000F000FBCF80B78F7780BF089580B78F7DFBCF10
:100100001F93CF93DF93282F30E0F901EE58FF4F74
:100110008491F901E959FF4FD491F901E45AFF4F55
:10012000C491CC23A1F0162F8111D1DFEC2FF0E088
:10013000EE0FFF1FEA5AFF4FA591B4918FB7F894C5
:10014000EC91111108C0D095DE23DC938FBFDF91B5
:10015000CF911F910895DE2BF8CFCF93DF9390E0DE
:10016000FC01E959FF4F2491845A9F4FFC0184916F
:100170008823C9F090E0880F991FFC01E05BFF4FD6
:10018000A591B491FC01EA5AFF4FC591D491611138
:100190000DC09FB7F8948C91209582238C93888111
:1001A000282328839FBFDF91CF910895623051F4B7
:1001B0009FB7F8943C91822F809583238C93E8819C
:1001C0002E2BEFCF8FB7F894EC912E2B2C938FBF63
:1001D000EACF1D9887B9369A3699FECF84B195B18A
:1001E00008953FB7F8948091710090917200A091AA
:1001F0007300B091740022B708B600FE05C02F3F0F
:1002000019F00196A11DB11D3FBFBA2FA92F982F3C
:100210008827BC01CD01620F711D811D911D43E036
:10022000660F771F881F991F4A95D1F708952FB73A
:10023000F89460916D0070916E0080916F009091C4
:1002400070002FBF0895FC014081518130E020E013
:10025000241735078CF4C901880F991F880F991F3F
:10026000A481B581A80FB91F1D921D921D921C92E9
:1002700013972F5F3F4FECCF138212820895DC015A
:100280001496ED91FC91159712968D919C91139770
:10029000861B970B6D917C9197FF02C0860F971F6D
:1002A0005ADA880F991F880F991FE80FF91F60818C
:1002B0007181828193810895EF92FF920F931F9332
:1002C000CF93DF93DC010D911C91FB0130E020E026
:1002D00002171307C4F04191519161917191E901A5
:1002E000CC0FDD1FCC0FDD1FDC011C96ED90FC90C8
:1002F000D701AC0FBD1F4D935D936D937C93139706
:100300002F5F3F4FE5CFDF91CF911F910F91FF906E
:10031000EF900895EF92FF920F931F93CF93DF9387
:10032000DC010D911C91FB0130E020E00217130766
:10033000C4F04191519161917191E901CC0FDD1FA0
:10034000CC0FDD1FDC011A96ED90FC90D701AC0FAD
:10035000BD1F4D935D936D937C9313972F5F3F4F1C
:10036000E5CFDF91CF911F910F91FF90EF9008950E
:100370004F925F926F927F928F929F92AF92BF92B5
:10038000CF92DF92EF92FF920F931F93CF93DF9361
:10039000EC018A019B01AE84BF84F50182819381C7
:1003A00001966081718197FF02C0860F971FD3D994
:1003B000F50193838283880F991F880F991F4481C9
:1003C0005581840F951FFC010083118322833383A1
:1003D0008880998010E000E0C12CD12C7601801635
:1003E00091063CF56C847D8408891989AA24A3941C
:1003F000B12C8A149B040CF442C0B5016150710900
:10040000C8013DDFF501EE0FFF1FEE0FFF1FE60DE8
:10041000F71D208131814281538124D99B01AC0198
:10042000C701B601A1D66B017C01FFEFAF1ABF0A6D
:10043000E0CFC801880F991F880F991FEA85FB85B7
:10044000E80FF91F2A813B814C815D8160817181B8
:100450008281938107D92B013C01B801C5010FDFCF
:100460009B01AC01C301B201FDD89B01AC01C701E6
:10047000B6017BD66B017C010F5F1F4FB0CFF3013C
:100480002081318142815381C701B601D6D65B01FB
:100490004C016B017C014E805F806884798420E090
:1004A00030E0A901C301B20169D81816C4F495015E
:1004B000A401C301B201BDD687FF02C052014301AE
:1004C00073016201F7FAF094F7F8F0949501A40132
:1004D000C701B60153D8181614F065017401F8016C
:1004E0008281938101966081718197FF02C0860F9E
:1004F000971F31D9F80193838283880F991F880F42
:10050000991F24813581820F931FFC01C082D18203
:10051000E282F382C701B601DF91CF911F910F9163
:10052000FF90EF90DF90CF90BF90AF909F908F9013
:100530007F906F905F904F900895CF93DF93EC0181
:1005400079836883611580E2780760F4CB01880FB6
:10055000991F880F991F2CD99D838C83CE01DF9121
:10056000CF9171CE8FEF9FEFF6CFEF92FF920F9367
:100570001F93CF93DF93EC01798368838B010F5F27
:100580001F4F7801EE0CFF1CEE0CFF1CC70110D9A9
:100590009B878A87C7010CD99D878C8786E090E06E
:1005A00007D97C01B801C9DFFF86EE8686E090E0BE
:1005B000FFD88C01688179816F5F7F4FBEDF198B17
:1005C000088B4881598190E080E048175907C4F0B2
:1005D0009C01220F331F220F331FAA85BB85A20F58
:1005E000B31F1D921D921D921C921397EC85FD85E1
:1005F000E20FF31F10821182128213820196E5CF5F
:10060000DF91CF911F910F91FF90EF9008950F937D
:100610001F93CF93DF93EC018A859B85009709F0A8
:1006200063D98C859D85009709F05ED90E851F855D
:100630000115110541F0F80184819581009709F0B9
:1006400053D9C80151D90888D989C02D209759F0AC
:100650008C819D81009709F047D9CE01DF91CF9120
:100660001F910F9141C9DF91CF911F910F91089573
:100670001F920F920FB60F9211242F933F938F93D7
:100680009F93AF93BF9380916D0090916E00A09166
:100690006F00B091700030916C0026E0230F2D3771
:1006A00058F50296A11DB11D20936C0080936D003A
:1006B00090936E00A0936F00B093700080917100D2
:1006C00090917200A0917300B09174000196A11DE9
:1006D000B11D8093710090937200A0937300B0934A
:1006E0007400BF91AF919F918F913F912F910F9087
:1006F0000FBE0F901F90189529E8230F0396A11D98
:10070000B11DD2CF1F920F920FB60F9211240F93EB
:100710001F932F933F934F935F936F937F938F9389
:100720009F93AF93BF93CF93DF93EF93FF93EAE74A
:10073000F0E08491EFE6F0E0D491E4E6F0E0C491DB
:10074000CC2371F18111C3DCEC2FF0E0EE0FFF1F21
:10075000E65BFF4FA591B491EC91ED2309F1CFB782
:10076000F8943FDD609360007093610080936200B5
:1007700090936300CFBFFF91EF91DF91CF91BF9135
:10078000AF919F918F917F916F915F914F913F9129
:100790002F911F910F910F900FBE0F901F901895E2
:1007A000CFB7F8941EDD0091600010916100209198
:1007B000620030916300601B710B70936500609361
:1007C000640035DD6093A9007093AA008093AB00AC
:1007D0009093AC00CFCFEF92FF920F931F93CF93E4
:1007E000DF93CDB7DEB728970FB6F894DEBF0FBE04
:1007F000CDBF8C0181E090E0F8019183808380E09F
:1008000090E0A0E8BFE382839383A483B58316823C
:1008100017821086118688E090E0CAD7F801938786
:10082000828788E090E0C4D7F8019587848786E0C6
:1008300090E0BED77C0162E070E07FDEF801F786D1
:10084000E68686E090E0B4D77C01F8016081718192
:100850006F5F7F4F72DEF801F18AE08A19821A8297
:100860001B821C821D821E821F821886BE016F5F42
:100870007F4FC8014FDDBE016F5F7F4FC8011CDD98
:10088000F80186859785DFDCF80180899189DBDCBA
:1008900028960FB6F894DEBF0FBECDBFDF91CF9183
:1008A0001F910F91FF90EF900895CF93DF93CDB7F5
:1008B000DEB768970FB6F894DEBF0FBECDBF789451
:1008C00080B7826080BF80B7816080BF83B782605D
:1008D00083BF83B7816083BF89B7816089BF1EBC36
:1008E0008EB582608EBD8EB581608EBD8FB5816004
:1008F0008FBD329A319A3098379A62E088E02DDCC9
:1009000061E084E02ADC60E081E027DC61E083E0F4
:1009100024DC61E086E021DC61E085E01EDC60E053
:1009200080E01BDC8BB780648BBF85B7816085BF9F
:1009300085B78D7F85BFF8941FBC1EBC12BC8FB5D8
:1009400080688FBD8FB580628FBD8FB58E7F8FBD64
:100950008FB58D7F8FBD8EB5877F8EBD8EB5806143
:100960008EBD8EB581608EBD8EB58D7F8EBD8EB5F0
:100970008B7F8EBD8FEF9FE095BD84BD7894C12C99
:10098000D12C90E8E92E9FE3F92EC98ADA8AEB8A06
:10099000FC8A80E090E0A6E9B3E48D879E87AF876C
:1009A000B88B80E090E8A5E9B3EC8D8B9E8BAF8B84
:1009B000B88FCD82DE82EF82F88680E090E0A8E4F6
:1009C000B3E489839A83AB83BC8380E090E0A7E49F
:1009D000B3EC89879A87AB87BC8762E070E089E7D0
:1009E00090E0C3DDC0927B00D0927C00E0927D005D
:1009F000F0927E00BE01635F7F4F89E790E08ADC62
:100A0000BE016F5F7F4F89E790E056DC198A1A8A32
:100A10001B8A1C8A8AE097EDA3E2BCE38D879E8740
:100A2000AF87B88BC982DA82EB82FC8284EA90E7D6
:100A3000ADE7BFEB8D839E83AF83B88761E070E045
:100A40008BE890E092DDC0928D00D0928E00E09213
:100A50008F00F0929000BE01635F7F4F8BE890E0C3
:100A600059DCBE016F5F7F4F8BE890E025DCC092C0
:100A70009100D0929200E0929300F092940061E095
:100A800083E03EDB60E084E03BDB8FB7F894C0900E
:100A9000A900D090AA00E090AB00F090AC008FBF0E
:100AA000C6DB6C197D098E099F0991D420E030E0E6
:100AB0004AE754E4C2D32DEC3CEC4CE45DE35ED554
:100AC000181694F41FB7F8942CED35E030936500B8
:100AD00020936400ACDB6093A9007093AA0080931C
:100AE000AB009093AC001FBFA2DB0091A50010915A
:100AF000A6002091A7003091A800601B710B820B0B
:100B0000930B65D420E030E04AE754E496D32FE617
:100B100032E143E05BE332D518160CF0AAC187DB63
:100B20006093A5007093A6008093A7009093A800FF
:100B300080E04FDBBC01990F880B990B4AD423E36B
:100B400033E343E550E48ED524EA30E94EE153E443
:100B500074D36B017C012FE832EC45E75DEB82D565
:100B600026E636E646EC5FE300D34B015C0120EE5F
:100B70003DE240E95AE3C701B60174D5A7019601E9
:100B800071D59B01AC01C501B401EFD24B015C01F1
:100B900020E030E0A9014DD387FDC3C020E030E064
:100BA00040E85FE3C501B401E9D418160CF4BDC0F8
:100BB0002CEF39EA41E75DEBC701B60153D529E2D5
:100BC0003CE54FEA5FE3D1D22B013C0125E435EF50
:100BD00046ED5AE3C701B60145D5A701960142D5B6
:100BE0009B01AC01C301B201C0D23B018C0120E0EA
:100BF00030E0A9011ED387FD9FC0A5019401B30178
:100C0000C801BCD418160CF49CC02FB7F89480917E
:100C10006400909165002FBF9C01245F3140213D0D
:100C2000374008F0B4C08C3424E092070CF4ACC018
:100C30008D3637E0930714F08CE697E0BC016C5DCD
:100C400075406F3171050CF47FC06E517109072E2C
:100C5000000C880B990BBDD320E030E049EB53E446
:100C6000ECD26B017C019301A801C501B4017CD2D7
:100C70009B01AC01C701B601F5D49301A80175D25F
:100C80001B012C01B201A10189E790E071DB750124
:100C90006401F7FAF094F7F8F094A7019601C9D22D
:100CA00087FD15C0B201A10189E790E061DB9B01DE
:100CB000AC01C501B401BDD27501640187FD07C057
:100CC000B201A10189E790E053DB6B017C01C09286
:100CD0009D00D0929E00E0929F00F092A0002CEE2A
:100CE00031E548E75FE3B301C801BCD49B01AC0127
:100CF000C701B60143D418160CF44DC02CEE31E5F3
:100D000048E75FEBB301C801ADD49B01AC01C7015B
:100D1000B6018FD210E000E087FF3FC002E010E094
:100D20003CC0812C912C540143CF812C912C80E824
:100D3000A82E8FE3B82E3CCF612C712C00E010E080
:100D400064CF3401850161CF623E4FEF7407FCF43C
:100D5000625E7F4F072E000C880B990B3AD320E080
:100D600030E049EB53E469D26B017C019301A801A7
:100D7000C501B401F9D19B01AC01C701B60172D420
:100D80009301A801F1D17CCF60E77EEFE1CF212C68
:100D9000312C210177CF01E010E080917700909114
:100DA00078008017910751F08091990090919A00F6
:100DB0004ADA80919B0090919C0045DA0130110540
:100DC00009F0DAC070E060E080919B0090919C0097
:100DD00056DA20E030E040E45FE3D0D318160CF0A0
:100DE000DCC0109376000093750061E084E088D940
:100DF0008091750090917600019709F431C16AB530
:100E00007BB590E080E0E3D24B015C0120E030E074
:100E1000A901C701B601B2D320E030EF4FE755E496
:100E200018160CF02FC1C701B6011CD420E030E029
:100E300040E853E499D19B01AC01C501B401F9D15B
:100E400087FF24C16AB57BB5739588B599B58130A4
:100E5000914008F434C188B599B59A952FB7F894A4
:100E60007BBD6ABD99BD88BD2FBF109378000093EC
:100E70007700B7D90091A1001091A2002091A300A2
:100E80003091A400601B710B820B930BA0D220E069
:100E900034E244E759E4D1D127E137EB41ED58E39F
:100EA0006DD318160CF061C09CD96093A1007093AB
:100EB000A2008093A3009093A40081E08AD9BC0192
:100EC000990F880B990B85D223E333E343E550E474
:100ED000C9D329E939E94CE452E4AFD14B015C01B3
:100EE00080E077D9C0909D00D0909E00E0909F0058
:100EF000F090A000BC01990F880B990B6AD223E3F4
:100F000033E343E550E4AED324EA30E94EE153E461
:100F100094D124E03DEA40E45BE3A4D322E73DE63C
:100F200048EA5BE322D12B013C0120E030E0A9013B
:100F3000C701B60123D318160CF002C12BE734E128
:100F400046E950E4C701B6018DD3E4D19B01AC0161
:100F5000C301B20187D39B01AC01C501B4016DD1BE
:100F6000AB01BC018BE890E003DA80E090E0892BD4
:100F700009F48BCD45D889CD0230110571F470E0AC
:100F800060E080919B0090919C0079D92DEC3CEC25
:100F90004CE05FE3F3D2181664F0809175009091F5
:100FA0007600009709F049C00130110509F054C0DE
:100FB00026CF109376000093750061E084E0A0D8FE
:100FC0008091750090917600029709F449C068B548
:100FD00079B590E080E0FBD14B015C0120E030E08E
:100FE000A901C701B601CAD220E030EF4FE755E4AE
:100FF00018160CF067C0C701B60134D320E030E00A
:1010000040E853E4B1D09B01AC01C501B40111D15A
:1010100087FF5CC068B579B573958AB59BB581309B
:10102000914008F46CC08AB59BB59A952FB7F89497
:101030009BBD8ABD79BD68BD17CF0817190741F060
:10104000109276001092750060E084E059D8ACCF21
:101050000130110509F4CCCE0230110509F4B0CFEE
:1010600080917500909176000197029708F04AC030
:101070008FB7F8942FEF3FE03BBD2ABD39BD28BDA7
:101080008FBFF3CEC701B6019058CFCE20E030E03D
:10109000A901C701B60172D218164CF420E030EF56
:1010A0004FE755E4C701B601DDD260D1CECEC7010E
:1010B000B601905820E030EF4FE755E4F5CF90E0CF
:1010C00080E0CCCEC701B601905897CF20E030E049
:1010D000A901C701B60152D218164CF420E030EF36
:1010E0004FE755E4C701B601BDD240D196CFC70145
:1010F000B601905820E030EF4FE755E4F5CF90E08F
:1011000080E094CF8AB59BB58F3F9E4098F42AB576
:101110003BB5339588B599B58F3F9E4070F488B53F
:1011200099B593954FB7F8943BBD2ABD99BD88BD3D
:101130004FBF9BCE2FEF3FE0EDCF8FEF9FE0F2CF81
:10114000C701B60190582BE734E146E950E4FCCEE4
:1011500089E790E040DB8BE890E03DCB8BE890E0C6
:1011600056DA89E790E053CA5058BB27AA270ED019
:10117000CBC1BCD130F0C1D120F031F49F3F11F48C
:101180001EF48CC10EF4E095E7FB82C1E92FCDD1AE
:1011900080F3BA17620773078407950718F071F494
:1011A0009EF5E5C10EF4E0950B2EBA2FA02D0B0194
:1011B000B90190010C01CA01A0011124FF27591B9C
:1011C00099F0593F50F4503E68F11A16F040A22FA2
:1011D000232F342F4427585FF3CF46953795279513
:1011E000A795F0405395C9F77EF41F16BA0B620B12
:1011F000730B840BBAF09150A1F0FF0FBB1F661F59
:10120000771F881FC2F70EC0BA0F621F731F841F9B
:1012100048F4879577956795B795F7959E3F08F0C1
:10122000B3CF9395880F08F09927EE0F9795879580
:1012300008950AD108F481E008950CD065C15DD10C
:1012400040F054D130F021F45F3F19F021C1511129
:101250008FC124C16AD198F39923C9F35523B1F3FF
:10126000951B550BBB27AA2762177307840738F015
:101270009F5F5F4F220F331F441FAA1FA9F333D074
:101280000E2E3AF0E0E830D091505040E695001C28
:10129000CAF729D0FE2F27D0660F771F881FBB1FE4
:1012A000261737074807AB07B0E809F0BB0B802DBE
:1012B000BF01FF2793585F4F2AF09E3F510568F00A
:1012C000E7C056C15F3FECF3983EDCF38695779517
:1012D0006795B795F7959F5FC9F7880F911D96950C
:1012E000879597F90895E1E0660F771F881FBB1F68
:1012F000621773078407BA0720F0621B730B840B15
:10130000BA0BEE1F88F7E095089519F40EF0C0C0EF
:101310002EC1C4C012D1C8F39638C0F707F80F9297
:10132000E8942BE33AEA48EB5FE7A9D10F920F92DA
:101330000F924DB75EB70F9262D1E2E2F0E0B1D00A
:101340004F915F91EF91FF91E595EE1FFF1F49F0DF
:10135000FE57E0684427EE0F441FFA95E1F74195E8
:10136000550B19D10F9007FE0DC1089504D0689454
:10137000B111FEC00895E1D088F09F5790F0B92FC9
:101380009927B751A0F0D1F0660F771F881F991FDA
:101390001AF0BA95C9F712C0B13081F0E8D0B1E0C7
:1013A0000895E5C0672F782F8827B85F39F0B93FD7
:1013B000CCF3869577956795B395D9F73EF49095DC
:1013C0008095709561957F4F8F4F9F4F0895E8945A
:1013D00009C097FB3EF490958095709561957F4F7D
:1013E0008F4F9F4F9923A9F0F92F96E9BB2793952B
:1013F000F695879577956795B795F111F8CFFAF43B
:10140000BB0F11F460FF1BC06F5F7F4F8F4F9F4F6B
:1014100016C0882311F096E911C0772321F09EE8C9
:10142000872F762F05C0662371F096E8862F70E02F
:1014300060E02AF09A95660F771F881FDAF7880F09
:101440009695879597F90895990F0008550FAA0B5F
:10145000E0E8FEEF16161706E807F907C0F01216C7
:101460001306E407F50798F0621B730B840B950BCA
:1014700039F40A2661F0232B242B252B21F408951F
:101480000A2609F4A140A6958FEF811D811D0895BC
:1014900097F99F6780E870E060E008959FEF80EC27
:1014A0000895DF93CF931F930F93FF92EF92DF92F4
:1014B0007B018C01689405C0DA2EEF01DED0FE01BD
:1014C000E894A5912591359145915591AEF3EF01A1
:1014D0005DDEFE019701A801DA9479F7DF90EF90C5
:1014E000FF900F911F91CF91DF91089500240A94EE
:1014F0001616170618060906089500240A941216EF
:101500001306140605060895092E0394000C11F421
:10151000882352F0BB0F40F4BF2B11F460FF04C0CE
:101520006F5F7F4F8F4F9F4F089557FD9058440F27
:10153000551F59F05F3F71F04795880F97FB991F32
:1015400061F09F3F79F087950895121613061406EF
:10155000551FF2CF4695F1DF08C01616170618067C
:10156000991FF1CF86957105610508940895E89457
:10157000BB2766277727CB0197F9089565DF08F425
:101580008FEF08959B01AC0160E070E080E89FE37D
:1015900054CE7ECFD2C0D1DFE8F39923D9F3940F94
:1015A000511DBBF39150504094F059F0882332F014
:1015B000660F771F881F91505040C1F79E3F51051D
:1015C00044F7880F911D9695879597F908955F3F89
:1015D000ACF0983E9CF0BB27869577956795B795BC
:1015E00008F4B1609395C1F7BB0F58F711F460FF91
:1015F000E8CF6F5F7F4F8F4F9F4FE3CFB9CFFA0197
:10160000DC01AA0FBB1F9B01AC01BF5728F42227A6
:101610003327442750781FC0B75188F4AB2F0024DC
:10162000469537952795011CA395D2F3002069F0C4
:10163000220F331F441FB395DAF30DD095CD6130DF
:101640007105A0E88A07B94630F49B01AC01662712
:10165000772788279078309621F020833183428342
:10166000538308950AD050CF41DF28F046DF18F0A9
:10167000952309F00DCF12CF7BCF57DFA8F3992325
:10168000D9F35523C9F3950F50E0551FAA27EE272C
:10169000FF27BB2700240894679520F4E20FF31F6F
:1016A000B41F0A1E220F331F441FAA1F6695A9F7F5
:1016B000779530F4F30FB41F0A1E121E08F46395D9
:1016C000330F441FAA1F221F769599F7879520F4A0
:1016D000B40F0A1E121E631F440FAA1F221F331FBE
:1016E0008695A9F7862F712D602D11249F575040A4
:1016F0008AF0E1F088234AF0EE0FFF1FBB1F661F40
:10170000771F881F91505040A9F79E3F510570F0F8
:10171000BFCE2ECF5F3FECF3983EDCF386957795F6
:101720006795B795F795E7959F5FC1F7FE2B880FF3
:10173000911D9695879597F908959F3F31F09150A7
:1017400020F4879577956795B795880F911D9695A5
:10175000879597F9089597FB072E16F4009406D005
:1017600077FD08D00BD007FC05D03EF4909581950D
:101770009F4F0895709561957F4F0895AA1BBB1BDD
:1017800051E107C0AA1FBB1FA617B70710F0A61B81
:10179000B70B881F991F5A95A9F780959095BC01A2
:1017A000CD010895EE0FFF1F0590F491E02D0994EF
:1017B0000F931F93CF93DF938230910510F482E053
:1017C00090E0E091AF00F091B00030E020E0B0E0B8
:1017D000A0E0309799F42115310509F44AC0281B7F
:1017E000390B24303105D8F58A819B81611571054B
:1017F00089F1FB0193838283FE0111C040815181F5
:101800000281138148175907E0F04817590799F4E6
:10181000109761F012960C93129713961C933296C0
:10182000CF01DF91CF911F910F9108950093AF00E9
:101830001093B000F4CF2115310551F04217530732
:1018400038F0A901DB019A01BD01DF01F801C1CF28
:10185000EF01F9CF9093B0008093AF00CDCFFE01A0
:10186000E20FF31F8193919322503109398328832A
:10187000D7CF2091AD003091AE00232B41F42091C1
:101880006800309169003093AE002093AD00209144
:101890006600309167002115310541F42DB73EB740
:1018A00040916A0050916B00241B350BE091AD0014
:1018B000F091AE00E217F307A0F42E1B3F0B2817A0
:1018C000390778F0AC014E5F5F4F2417350748F0B9
:1018D0004E0F5F1F5093AE004093AD0081939193E4
:1018E0009FCFF0E0E0E09CCFCF93DF930097E9F04B
:1018F000FC01329713821282A091AF00B091B00028
:10190000ED0130E020E01097A1F420813181820FB9
:10191000931F2091AD003091AE002817390709F0D0
:1019200061C0F093AE00E093AD00DF91CF910895D8
:10193000EA01CE17DF07E8F54A815B819E01411578
:101940005105B1F7E901FB83EA8349915991C40F2D
:10195000D51FEC17FD0761F4808191810296840FF9
:10196000951FE90199838883828193819B838A8370
:10197000F0E0E0E012968D919C9113970097B9F5F5
:101980002D913C911197CD010296820F931F2091CA
:10199000AD003091AE002817390739F6309751F570
:1019A0001092B0001092AF00B093AE00A093AD00C3
:1019B000BCCFD383C28340815181840F951FC81748
:1019C000D90761F44E5F5F4F88819981480F591F95
:1019D000518340838A819B819383828321153105C2
:1019E00009F0B0CFF093B000E093AF009ECFFD01BF
:1019F000DC01C0CF13821282D7CF10E0C0E4D0E068
:101A000003C0FE01CFDE2196C134D107D1F7F8948F
:021A1000FFCF06
:0C1A1200FFFF0000DC050000B1008000B8
:00000001FF
