:100000002CC0CCC34FC04EC04DC04CC04BC04AC02A
:1000100049C048C047C078C345C044C043C042C07F
:1000200041C000003A00370000003B0038000000EB
:100030003900360001010101010101010202020142
:1000400002040810204080040201000000000004A7
:100050000302010000008007860711241FBECFE5C0
:10006000D2E0DEBFCDBF10E0A0E6B0E0E0E1F6E117
:1000700002C005900D92AC36B107D9F720E0ACE68E
:10008000B0E001C01D92A93BB207E1F710E0CCE25D
:10009000D0E003C02197FE0184D9CB32D107D1F73C
:1000A00039D4AACAADCF8230A1F018F4813069F0FA
:1000B0000895833019F0843029F008958FB58F7733
:1000C0008FBD08958FB58F7DFBCF80B78F7780BFB1
:1000D000089580B78F7DFBCFCF93DF93282F30E03B
:1000E000F901E65BFF4F8491F901E15CFF4FD49188
:1000F000F901EC5CFF4FC491CC2399F08111D3DF5F
:10010000EC2FF0E0EE0FFF1FE25DFF4FA591B491E1
:10011000EC91ED2381E090E009F480E0DF91CF9154
:10012000089580E090E0FACF1F93CF93DF93282FBC
:1001300030E0F901E65BFF4F8491F901E15CFF4F8C
:10014000D491F901EC5CFF4FC491CC23A1F0162FA0
:100150008111A9DFEC2FF0E0EE0FFF1FE85DFF4FEC
:10016000A591B4918FB7F894EC91111108C0D09576
:10017000DE23DC938FBFDF91CF911F910895DE2B9B
:10018000F8CFCF93DF9390E0FC01E15CFF4F249127
:100190008C5C9F4FFC0184918823C9F090E0880F0C
:1001A000991FFC01EE5DFF4FA591B491FC01E85D44
:1001B000FF4FC591D49161110DC09FB7F8948C91F8
:1001C000209582238C938881282328839FBFDF91E9
:1001D000CF910895623051F49FB7F8943C91822FEB
:1001E000809583238C93E8812E2BEFCF8FB7F894E3
:1001F000EC912E2B2C938FBFEACF1D9887B9369A9E
:100200003699FECF84B195B108953FB7F8948091A7
:10021000710090917200A0917300B091740022B7A8
:1002200008B600FE05C02F3F19F00196A11DB11DB3
:100230003FBFBA2FA92F982F8827BC01CD01620F8D
:10024000711D811D911D43E0660F771F881F991F47
:100250004A95D1F708952FB7F89460916D00709189
:100260006E0080916F00909170002FBF0895FC0187
:100270004081518130E020E0241735078CF4C9011A
:10028000880F991F880F991FA481B581A80FB91FE6
:100290001D921D921D921C9213972F5F3F4FECCF22
:1002A000138212820895DC011496ED91FC9115974A
:1002B00012968D919C911397861B970B6D917C9153
:1002C00097FF02C0860F971F45D8880F991F880F88
:1002D000991FE80FF91F60817181828193810895D0
:1002E000EF92FF920F931F93CF93DF93DC010D9159
:1002F0001C91FB0130E020E002171307C4F041918C
:10030000519161917191E901CC0FDD1FCC0FDD1F7F
:10031000DC011C96ED90FC90D701AC0FBD1F4D93F6
:100320005D936D937C9313972F5F3F4FE5CFDF91E4
:10033000CF911F910F91FF90EF900895EF92FF9250
:100340000F931F93CF93DF93DC010D911C91FB0161
:1003500030E020E002171307C4F041915191619100
:100360007191E901CC0FDD1FCC0FDD1FDC011A9666
:10037000ED90FC90D701AC0FBD1F4D935D936D9335
:100380007C9313972F5F3F4FE5CFDF91CF911F9164
:100390000F91FF90EF9008954F925F926F927F922E
:1003A0008F929F92AF92BF92CF92DF92EF92FF9285
:1003B0000F931F93CF93DF93EC018A019B01AE84CF
:1003C000BF84F5018281938101966081718197FFDD
:1003D00002C0860F971FBED7F50193838283880FD3
:1003E000991F880F991F44815581840F951FFC0127
:1003F00000831183228333838880998010E000E09A
:10040000C12CD12C7601801691063CF56C847D843C
:1004100008891989AA24A394B12C8A149B040CF48A
:1004200042C0B50161507109C8013DDFF501EE0F11
:10043000FF1FEE0FFF1FE60DF71D20813181428166
:1004400053811DD79B01AC01C701B60165D56B0176
:100450007C01FFEFAF1ABF0AE0CFC801880F991FD8
:10046000880F991FEA85FB85E80FF91F2A813B81D8
:100470004C815D81608171818281938100D72B01E4
:100480003C01B801C5010FDF9B01AC01C301B20102
:10049000F6D69B01AC01C701B6013FD56B017C01CB
:1004A0000F5F1F4FB0CFF301208131814281538113
:1004B000C701B6019AD55B014C016B017C014E80EE
:1004C0005F806884798420E030E0A901C301B20133
:1004D000D2D61816C4F49501A401C301B20181D586
:1004E00087FF02C05201430173016201F7FAF094E1
:1004F000F7F8F0949501A401C701B601BCD618160F
:1005000014F065017401F801828193810196608184
:10051000718197FF02C0860F971F1CD7F801938344
:100520008283880F991F880F991F24813581820F3C
:10053000931FFC01C082D182E282F382C701B6011F
:10054000DF91CF911F910F91FF90EF90DF90CF90AF
:10055000BF90AF909F908F907F906F905F904F90E3
:100560000895CF9381309105A9F46130710539F177
:10057000CFB7F894CA01B9019F7720E030EF4FE779
:1005800055E47DD69AD57BBD6ABD19BC18BCCFBFDA
:10059000CF910895029799F46230710581F0CFB739
:1005A000F8941BBC1ABCCA01B9019F7720E030EF58
:1005B0004FE755E464D681D579BD68BDE8CF2FB744
:1005C000F89489E09FE09BBD8ABD99BD88BD2FBF8F
:1005D000DFCFCF93DF93EC0179836883611580E2ED
:1005E000780760F4CB01880F991F880F991FDFD619
:1005F0009D838C83CE01DF91CF9139CE8FEF9FEF1A
:10060000F6CFEF92FF920F931F93CF93DF93EC01FE
:10061000798368838B010F5F1F4F7801EE0CFF1CFD
:10062000EE0CFF1CC701C3D69B878A87C701BFD6C4
:100630009D878C8786E090E0BAD67C01B801C9DF3F
:10064000FF86EE8686E090E0B2D68C0168817981E3
:100650006F5F7F4FBEDF198B088B4881598190E017
:1006600080E048175907C4F09C01220F331F220F66
:10067000331FAA85BB85A20FB31F1D921D921D9229
:100680001C921397EC85FD85E20FF31F10821182F7
:10069000128213820196E5CFDF91CF911F910F91C6
:1006A000FF90EF9008950F931F93CF93DF93EC018A
:1006B0008A859B85009709F016D78C859D850097C4
:1006C00009F011D70E851F850115110541F0F801BC
:1006D00084819581009709F006D7C80104D708885E
:1006E000D989C02D209759F08C819D81009709F000
:1006F000FAD6CE01DF91CF911F910F91F4C6DF9111
:10070000CF911F910F9108951F920F920FB60F92E4
:1007100011242F933F938F939F93AF93BF93809117
:100720006D0090916E00A0916F00B09170003091BB
:100730006C0026E0230F2D3758F50296A11DB11D40
:1007400020936C0080936D0090936E00A0936F00D7
:10075000B09370008091710090917200A09173002D
:10076000B09174000196A11DB11D8093710090930A
:100770007200A0937300B0937400BF91AF919F91EA
:100780008F913F912F910F900FBE0F901F90189552
:1007900029E8230F0396A11DB11DD2CF1F920F92FE
:1007A0000FB60F9211240F931F932F933F934F93E4
:1007B0005F936F937F938F939F93AF93BF93CF93E9
:1007C000EF93FF9388E088DCCFB7892BF9F0F8949A
:1007D0001CDD6093600070936100809362009093D1
:1007E0006300CFBFFF91EF91CF91BF91AF919F91E8
:1007F0008F917F916F915F914F913F912F911F91B9
:100800000F910F900FBE0F901F901895F894FDDC7C
:1008100000916000109161002091620030916300AE
:10082000601B710B709365006093640014DD60932E
:10083000B1007093B2008093B3009093B400D1CF15
:10084000EF92FF920F931F93CF93DF93CDB7DEB755
:1008500028970FB6F894DEBF0FBECDBF8C0181E0A4
:1008600090E0F8019183808380E090E0A0E8BFE30E
:1008700082839383A483B5831682178210861186A0
:1008800088E090E094D5F8019387828788E090E033
:100890008ED5F8019587848786E090E088D57C0125
:1008A00062E070E096DEF801F786E68686E090E08A
:1008B0007ED57C01F801608171816F5F7F4F89DE99
:1008C000F801F18AE08A19821A821B821C821D8239
:1008D0001E821F821886BE016F5F7F4FC8012EDD0A
:1008E000BE016F5F7F4FC801FBDCF80186859785ED
:1008F000BEDCF80180899189BADC28960FB6F8949D
:10090000DEBF0FBECDBFDF91CF911F910F91FF9042
:10091000EF900895CF93DF93CDB7DEB768970FB60A
:10092000F894DEBF0FBECDBF789480B7826080BFE1
:1009300080B7816080BF83B7826083BF83B78160E7
:1009400083BF89B7816089BF1EBC8EB582608EBDB2
:100950008EB581608EBD8FB581608FBD329A319A20
:100960003098379A62E088E00CDC61E084E009DCD2
:1009700060E081E006DC61E083E003DC61E086E0CA
:1009800000DC61E085E0FDDB60E080E0FADB8BB756
:1009900080648BBF85B7816085BF85B78D7F85BF3C
:1009A000F8941FBC1EBC12BC8FB580688FBD8FB57C
:1009B00080628FBD8FB58E7F8FBD8FB58D7F8FBDD0
:1009C0008EB5877F8EBD8EB580618EBD8EB5816000
:1009D0008EBD8EB58D7F8EBD8EB58B7F8EBD8FEF1C
:1009E0009FE095BD84BD7894812C912C50E8A52E74
:1009F0005FE3B52E898A9A8AAB8ABC8A80E090E050
:100A0000A0ECB0E48D879E87AF87B88B80E090E044
:100A1000A0EAB0EC8D8B9E8BAF8BB88F8D829E82BF
:100A2000AF82B88683E994E2A9E8B1E489839A8326
:100A3000AB83BC8383E994E2A1E8B1EC89879A8710
:100A4000AB87BC8762E070E087E790E0DADD8092F8
:100A5000790090927A00A0927B00B0927C00BE0157
:100A6000635F7F4F87E790E069DCBE016F5F7F4F78
:100A700087E790E035DC198A1A8A1B8A1C8A8AE08B
:100A800097EDA3EABCE38D879E87AF87B88B8982F9
:100A90009A82AB82BC8288E491EEAAE7BFEB8D8399
:100AA0009E83AF83B88761E070E089E890E0A9DDBC
:100AB00080928B0090928C00A0928D00B0928E005C
:100AC000BE01635F7F4F89E890E038DCBE016F5F55
:100AD0007F4F89E890E004DC80928F009092900034
:100AE000A0929100B092920061E083E01DDB60E093
:100AF00084E01ADB62E0262E312C01E010E08FB793
:100B0000F8948090B1009090B200A090B300B090A3
:100B1000B4008FBFA0DB681979098A099B09F9D253
:100B200020E030E04AE754E460D22DEC3CEC4CE4A9
:100B30005DE3A1D3181694F4BFB6F8948CED95E05C
:100B4000909365008093640086DB6093B10070939E
:100B5000B2008093B3009093B400BFBE7CDB809062
:100B6000AD009090AE00A090AF00B090B0006819BA
:100B700079098A099B09CDD220E030E04AE754E4A4
:100B800034D22AE037ED43E25CE375D3181664F5FE
:100B900062DB6093AD007093AE008093AF009093E2
:100BA000B00082E099DA892B09F063C18091AB0033
:100BB0009091AC00863091050CF455C1A090A9002D
:100BC000B090AA00B092A800A092A70060E084E0D4
:100BD000ABDA2091A3003091A4004091A500509180
:100BE000A600B501C501BDDC36DB80909F0090906A
:100BF000A000A090A100B090A200681979098A090C
:100C00009B0987D220E030E04AE754E4EED12AE0A5
:100C100037ED43EA5BE32FD318160CF0B4C01BDBAF
:100C200060939F007093A0008093A1009093A20016
:100C30002FB7F89480916400909165002FBF9C01BC
:100C4000245F3140213D374008F58C3424E0920781
:100C5000BCF08D3647E0940714F08CE697E08C5D8D
:100C60009540C12CD12C40E8E42E4FE3F42E8F3177
:100C7000910564F4C12CD12C7601823E9F4F34F44F
:100C8000C12CD12C30E8E32E3FEBF32EB701A601A7
:100C900087E790E081DB20E030E040E85FEBA1D126
:100CA000412C512C20E8622E2FEB722E87FD19C0AB
:100CB000B701A60187E790E06FDB20E030E040E875
:100CC0005FE3D9D2412C512C90E8692E9FE3792E15
:100CD00018163CF0B701A60187E790E05DDB2B0119
:100CE0003C014092A3005092A4006092A500709233
:100CF000A6002DEC3CEC4CE45DE3C301B201BBD299
:100D000018160CF0BBC01093AA000093A900A09085
:100D1000A900B090AA008091750090917600A81665
:100D2000B90651F08091970090919800A0DA8091D7
:100D3000990090919A009BDA41E0A416B10409F061
:100D4000B0C070E060E08091990090919A00ABDAB9
:100D500023E333E343E75FE38ED218160CF4B2C00B
:100D60008091A7009091A800009709F0B3C060910E
:100D7000A7007091A800A3019201C501F2DBB09217
:100D80007600A092750041DA80909B0090909C00C4
:100D9000A0909D00B0909E00681979098A099B096E
:100DA000B8D120E034E244E759E41FD127E137EB22
:100DB00041ED58E360D218160CF04EC026DA60936D
:100DC0009B0070939C0080939D0090939E0081E017
:100DD00014DABC01990F880B990B9DD123E333E3FF
:100DE00043E550E44CD229E939E94CE452E4FDD022
:100DF0002B013C0180E001DABC01990F880B990BB3
:100E00008AD123E333E343E550E439D224EA30E9DD
:100E10004EE153E4EAD025E13EEA47E950E4E5D06B
:100E20004B015C0120E030E0A901DBD087FD5CC014
:100E300023E333E343E750E4C501B4011CD21816A1
:100E40000CF456C0A5019401C301B201CED0AB0190
:100E5000BC0189E890E0A0DA80E090E0892B09F4F9
:100E60004ECECED84CCE01969093AC008093AB0082
:100E7000BBCE1092AC001092AB00B6CE2DEC3CEC89
:100E80004CE45DEBC301B201ACD087FF05C03092EA
:100E9000AA002092A9003BCF1092AA001092A900AC
:100EA00036CF82E0A816B10409F05ACF70E060E0B6
:100EB0008091990090919A00F6D923E333E343E3BC
:100EC0005FE34ACFB092A800A092A70061E084E05F
:100ED0002BD94DCFA816B90609F449CF1092A80016
:100EE0001092A70060E0F3CF812C912C5401AACF7F
:100EF00083E3882E982C83E7A82E80E4B82EA2CF17
:100F000087E790E09DDC89E890E09ACC89E890E062
:100F1000CADB87E790E0C7CB5058BB27AA270ED083
:100F200070C161D130F066D120F031F49F3F11F4EF
:100F30001EF456C10EF4E095E7FB4CC1E92F72D1C7
:100F400080F3BA17620773078407950718F071F4E6
:100F50009EF58AC10EF4E0950B2EBA2FA02D0B0141
:100F6000B90190010C01CA01A0011124FF27591BEE
:100F700099F0593F50F4503E68F11A16F040A22FF4
:100F8000232F342F4427585FF3CF46953795279565
:100F9000A795F0405395C9F77EF41F16BA0B620B64
:100FA000730B840BBAF09150A1F0FF0FBB1F661FAB
:100FB000771F881FC2F70EC0BA0F621F731F841FEE
:100FC00048F4879577956795B795F7959E3F08F014
:100FD000B3CF9395880F08F09927EE0F97958795D3
:100FE0000895D4D008F481E008950CD00AC102D14C
:100FF00040F0F9D030F021F45F3F19F0EBC051110F
:1010000034C1EEC00FD198F39923C9F35523B1F33E
:10101000951B550BBB27AA2762177307840738F067
:101020009F5F5F4F220F331F441FAA1FA9F333D0C6
:101030000E2E3AF0E0E830D091505040E695001C7A
:10104000CAF729D0FE2F27D0660F771F881FBB1F36
:10105000261737074807AB07B0E809F0BB0B802D10
:10106000BF01FF2793585F4F2AF09E3F510568F05C
:10107000B1C0FBC05F3FECF3983EDCF386957795FB
:101080006795B795F7959F5FC9F7880F911D96955E
:10109000879597F90895E1E0660F771F881FBB1FBA
:1010A000621773078407BA0720F0621B730B840B67
:1010B000BA0BEE1F88F7E0950895BCD088F09F57D3
:1010C00090F0B92F9927B751A0F0D1F0660F771F94
:1010D000881F991F1AF0BA95C9F712C0B13081F074
:1010E000C3D0B1E00895C0C0672F782F8827B85FBC
:1010F00039F0B93FCCF3869577956795B395D9F7D5
:101100003EF490958095709561957F4F8F4F9F4FDE
:101110000895E89409C097FB3EF4909580957095EA
:1011200061957F4F8F4F9F4F9923A9F0F92F96E933
:10113000BB279395F695879577956795B795F111A8
:10114000F8CFFAF4BB0F11F460FF1BC06F5F7F4F45
:101150008F4F9F4F16C0882311F096E911C0772357
:1011600021F09EE8872F762F05C0662371F096E860
:10117000862F70E060E02AF09A95660F771F881F2F
:10118000DAF7880F9695879597F90895990F0008D3
:10119000550FAA0BE0E8FEEF16161706E807F90749
:1011A000C0F012161306E407F50798F0621B730BE4
:1011B000840B950B39F40A2661F0232B242B252B65
:1011C00021F408950A2609F4A140A6958FEF811D08
:1011D000811D089597F99F6780E870E060E00895A9
:1011E0009FEF80EC089500240A941616170618063F
:1011F0000906089500240A9412161306140605061B
:101200000895092E0394000C11F4882352F0BB0FAB
:1012100040F4BF2B11F460FF04C06F5F7F4F8F4F0E
:101220009F4F089557FD9058440F551F59F05F3F49
:1012300071F04795880F97FB991F61F09F3F79F0F8
:1012400087950895121613061406551FF2CF46957A
:10125000F1DF08C0161617061806991FF1CF8695FC
:101260007105610508940895E894BB2766277727E0
:10127000CB0197F908958ADF08F48FEF08950AD01B
:10128000C0CFB1DF28F0B6DF18F0952309F0A2CF68
:10129000A7CFEBCFC7DFA8F39923D9F35523C9F321
:1012A000950F50E0551FAA27EE27FF27BB270024E4
:1012B0000894679520F4E20FF31FB41F0A1E220F53
:1012C000331F441FAA1F6695A9F7779530F4F30FD3
:1012D000B41F0A1E121E08F46395330F441FAA1F81
:1012E000221F769599F7879520F4B40F0A1E121ED7
:1012F000631F440FAA1F221F331F8695A9F7862F4D
:10130000712D602D11249F5750408AF0E1F0882301
:101310004AF0EE0FFF1FBB1F661F771F881F9150FB
:101320005040A9F79E3F510570F054CF9ECF5F3FCC
:10133000ECF3983EDCF3869577956795B795F7952E
:10134000E7959F5FC1F7FE2B880F911D96958795B6
:1013500097F9089597FB072E16F4009406D077FDB1
:1013600008D00BD007FC05D03EF4909581959F4F97
:101370000895709561957F4F0895AA1BBB1B51E19D
:1013800007C0AA1FBB1FA617B70710F0A61BB70BF5
:10139000881F991F5A95A9F780959095BC01CD019A
:1013A0000895EE0FFF1F0590F491E02D09940F931F
:1013B0001F93CF93DF938230910510F482E090E089
:1013C000E091B700F091B80030E020E0B0E0A0E09C
:1013D000309799F42115310509F44AC0281B390BBF
:1013E00024303105D8F58A819B816115710589F119
:1013F000FB0193838283FE0111C0408151810281F0
:10140000138148175907E0F04817590799F41097C6
:1014100061F012960C93129713961C933296CF019B
:10142000DF91CF911F910F9108950093B700109312
:10143000B800F4CF2115310551F04217530738F0A9
:10144000A901DB019A01BD01DF01F801C1CFEF0164
:10145000F9CF9093B8008093B700CDCFFE01E20F93
:10146000F31F819391932250310939832883D7CF79
:101470002091B5003091B600232B41F420916800F3
:10148000309169003093B6002093B500209166003A
:10149000309167002115310541F42DB73EB74091D9
:1014A0006A0050916B00241B350BE091B500F09160
:1014B000B600E217F307A0F42E1B3F0B28173907DD
:1014C00078F0AC014E5F5F4F2417350748F04E0FA0
:1014D0005F1F5093B6004093B500819391939FCFC7
:1014E000F0E0E0E09CCFCF93DF930097E9F0FC01C0
:1014F000329713821282A091B700B091B800ED012B
:1015000030E020E01097A1F420813181820F931FF9
:101510002091B5003091B6002817390709F061C055
:10152000F093B600E093B500DF91CF910895EA0102
:10153000CE17DF07E8F54A815B819E014115510511
:10154000B1F7E901FB83EA8349915991C40FD51F93
:10155000EC17FD0761F4808191810296840F951F3D
:10156000E90199838883828193819B838A83F0E058
:10157000E0E012968D919C9113970097B9F52D910B
:101580003C911197CD010296820F931F2091B500D7
:101590003091B6002817390739F6309751F5109277
:1015A000B8001092B700B093B600A093B500BCCFBE
:1015B000D383C28340815181840F951FC817D907F7
:1015C00061F44E5F5F4F88819981480F591F5183A5
:1015D00040838A819B81938382832115310509F0A1
:1015E000B0CFF093B800E093B7009ECFFD01DC01CF
:1015F000C0CF13821282D7CF10E0CCE2D0E003C07C
:10160000FE01CFDE2196CD32D107D1F7F894FFCF7E
:0C161000FFFF0000DC050000B9008000B6
:00000001FF
